:020000040800F2
:100000002007002029020008F11500084B15000800
:10001000ED1500081F040008C11B000800000000C7
:10002000000000000000000000000000F7150008BC
:100030002304000800000000F5150008F915000869
:10004000430200084302000843020008430200087C
:10005000430200084302000843020008430200086C
:10006000430200084302000843020008430200085C
:10007000430200084302000843020008430200084C
:10008000430200084302000843020008430200083C
:10009000430200084302000843020008430200082C
:1000A000430200084302000843020008430200081C
:1000B000430200084302000843020008430200080C
:1000C00043020008430200084302000843020008FC
:1000D00043020008611B00084302000843020008B5
:1000E00043020008430200084302000843020008DC
:1000F00043020008430200084302000843020008CC
:1001000043020008430200084302000843020008BB
:1001100043020008430200084302000843020008AB
:10012000430200084302000843020008430200089B
:10013000430200084302000843020008430200088B
:10014000430200084302000843020008430200087B
:10015000430200084302000843020008430200086B
:10016000430200084302000843020008430200085B
:100170004302000843020008430200080000000098
:10018000430200084302000800F002F800F03CF8C7
:100190000AA090E8000C82448344AAF10107DA45E2
:1001A00001D100F031F8AFF2090EBAE80F0013F0F8
:1001B000010F18BFFB1A43F001031847BC1A0000D7
:1001C000DC1A0000103A24BF78C878C1FAD8520768
:1001D00024BF30C830C144BF04680C6070470000C1
:1001E0000023002400250026103A28BF78C1FBD840
:1001F000520728BF30C148BF0B6070471FB501F0E0
:1002000029FD1FBD10B510BD00F0CFF81146FFF756
:10021000F5FF01F0F3FC00F0EDF803B4FFF7F2FF97
:1002200003BC00F0F5F80000094880470948004782
:10023000FEE7FEE7FEE7FEE7FEE7FEE7FEE7FEE796
:10024000FEE7FEE704480549054A064B70470000F3
:1002500099160008890100082001002020070020CD
:10026000200300202003002053EA020C00F06980E4
:100270002DE9F04B4FF00006002B1FBFB3FA83F5BA
:1002800003FA05F424FA05F65E4012BF1643B2FAEB
:1002900082F502FA05F4C5F120051EBF22FA05FC1D
:1002A00044EA0C04203556EA044C4FEA144418BFC3
:1002B000641C4FF000084FF00009904271EB030CF2
:1002C00039D3002919BFB1FA81F701FA07F6B0FA5C
:1002D00080F700FA07F6C7F120071EBF20FA07FCD7
:1002E00046EA0C062037B6FBF4FCA7EB0507103FE7
:1002F00007F01F0BCBF120060CFA0BFB2CFA06F6CD
:1003000044BFB3460026202FA4BF5E464FF0000B2B
:100310005BEA060C08BF4FF0010B19EB0B09ABFBB6
:10032000027C48EB0608C01B06FB02CC0BFB03CC8F
:1003300071EB0C01C1E70B46024641464846BDE859
:10034000F08B13B54FF000004FF00001AFF30080C9
:10035000BDE81C4070474FF0000200B513469446BC
:100360009646203922BFA0E80C50A0E80C50B1F10D
:100370002001BFF4F7AF090728BFA0E80C5048BF21
:100380000CC05DF804EB890028BF40F8042B08BFBF
:10039000704748BF20F8022B11F0804F18BF00F8BB
:1003A000012B7047704770477047754600F02CF876
:1003B000AE4605006946534620F00700854618B052
:1003C00020B5FFF73FFFBDE820404FF000064FF09B
:1003D00000074FF000084FF0000B21F00701AC467A
:1003E000ACE8C009ACE8C009ACE8C009ACE8C00999
:1003F0008D46704710B50446AFF300802046BDE837
:100400001040FFF70ABF000000487047C0000020FE
:1004100001491820ABBEFEE726000200704700BF6E
:10042000FEE7704772B600BFFEE770B50446A56DE3
:1004300000F074F9064694F83500022808D08020B0
:10044000606500BF002084F8340000BF012070BD4B
:100450002068006820F01600216808602068406964
:1004600020F0800021684861206C08B9A06C28B198
:100470002068006820F00800216808602068006893
:1004800020F001002168086010E000F047F9801BAF
:1004900005280BD920206065032084F8350000BFB3
:1004A000002084F8340000BF0320D0E720680068F3
:1004B00000F001000028E8D194F85C103F2088404B
:1004C000A860012084F8350000BF002084F83400C3
:1004D00000BF00BFBBE7014691F83500022803D0FA
:1004E0008020486501207047052081F835000868A4
:1004F000006820F001000A6810600020F3E70000A7
:1005000070B5044600F00AF906462546681C10B18D
:1005100004480078054400BF00F000F9801BA842A1
:10052000FAD370BD0C000020F8B502460B4600253A
:10053000002400200021D6E0012606FA01F51E68FD
:1005400006EA0504AC4274D11E7906F00306012EBA
:1005500004D01E7906F00306022E13D190684F00D6
:100560000326BE40B0434F00DE68BE40304390607B
:10057000506801268E40B0431E79C6F300168E40A7
:10058000304350601E7906F00306032E09D0D06870
:100590004F000326BE40B0434F009E68BE4030432C
:1005A000D0601E7906F00306022E13D1CF0802F1A7
:1005B000200656F827004E07F70E0F26BE40B04320
:1005C0004F07FF0E1E69BE403043CF0802F12006E0
:1005D00046F8270010684F000326BE40B0431E793E
:1005E00006F003064F00BE40304310605E6806F41C
:1005F0004036002E76D000BF002600963C4E36686E
:1006000046F480463A4F3E603E46366806F48046E1
:10061000009600BF00BF374E8F0856F827008E07A0
:10062000370F0F26BE40B043334EB24202D10026F0
:1006300024E057E0314EB24201D101261EE0304E97
:10064000B24201D1022619E02E4EB24201D1032658
:1006500014E02D4EB24201D104260FE02B4EB242DF
:1006600001D105260AE02A4EB24201D1062605E054
:10067000284EB24201D1072600E008268F073F0F1F
:10068000BE4030431B4E8F0846F82700224E30688C
:10069000A0435E6806F4801606B120431E4E30600B
:1006A000361D3068A0435E6806F4001606B120438C
:1006B000194E361D3060184E361F3068A0435E68F4
:1006C00006F4003606B12043134E361F3060361F45
:1006D0003068A0435E6806F4803606B120430E4EB3
:1006E000083E3060491C1029FFF426AFF8BD000019
:1006F0004438024008380140000002400004024033
:1007000000080240000C02400010024000140240A9
:1007100000180240001C0240083C014001480068EB
:10072000704700000400002003480068034909786E
:100730000844014908607047040000200C000020B4
:1007400010B50D48006840F400700B490860084679
:10075000006840F4806008600846006840F48070DB
:100760000860032000F0A6F80F2000F007F800F062
:100770002BF8002010BD0000003C024070B504467C
:100780000E4800784FF47A71B1FBF0F00C4909681B
:10079000B1FBF0F5284600F02FFC08B1012070BD38
:1007A000102C07D200222146501E00F045F80548C3
:1007B000046001E00120F2E70020F0E70C000020D7
:1007C000100000200800002008B500BF00200090A5
:1007D0000E48006840F480400C49086008460068F4
:1007E00000F48040009000BF00BF00BF00200090D8
:1007F000081F006840F08050091F08600846006824
:1008000000F08050009000BF00BF08BD4438024097
:100810000146084600280DDB00BF00BF00F01F03A3
:1008200001229A4043099B0003F1E023C3F8002111
:1008300000BF00BF00BF70472DE9F05F80460D4646
:100840001646002701F0BEF9074639462A463346C8
:1008500001F00700C0F1070ABAF1040F02D94FF006
:10086000040A01E0C0F1070AD14600F1040ABAF116
:10087000070F02D24FF0000A01E0A0F1030AD446AC
:100880004FF0010A0AFA09FAAAF1010A0AEA020A71
:100890000AFA0CFA4FF0010B0BFA0CFBABF1010B4F
:1008A0000BEA030B4AEA0B042146404601F092F999
:1008B000BDE8F09F00BF00F00702064B19684FF635
:1008C000FF031940044B0B4343EA0221014B19601B
:1008D00000BF70470CED00E00000FA0570B504465B
:1008E0000D460CB9012070BD5848006800F00700A3
:1008F000A84209D255490D700846006800F007006B
:10090000A84201D00120EEE7207800F00200022882
:100910001DD1207800F00400042805D14C4800685F
:1009200040F4E0504A490860207800F008000828A8
:1009300005D14748006840F4604045490860444894
:10094000006820F0F000A168084341490860207861
:1009500000F00100A8B36068012807D13C480838BE
:100960000068C0F34040B8B90120BCE760680228C5
:1009700002D06068032807D1354808380068C0F302
:10098000406048B90120AEE7314808380068C0F33C
:10099000400008B90120A6E72D48006820F00300B8
:1009A000616808432A490860FFF7B8FE064609E077
:1009B000FFF7B4FE801B41F28831884202D9032040
:1009C00091E707E02248006800F00C006168B0EB96
:1009D000810FEDD11D48006800F00700A84209D939
:1009E0001A490D700846006800F00700A84201D0BF
:1009F000012078E7207800F00400042807D114488B
:100A0000006820F4E050E16808431149086020784C
:100A100000F00800082808D10D48006820F4604064
:100A2000216940EAC1000A49086000F03FF808491E
:100A30000968C1F30311074A515CC84006490860C0
:100A400006480068FFF79AFE00204CE7003C024091
:100A5000083802405E1C000810000020080000203A
:100A600001480068704700001000002000B5FFF743
:100A7000F7FF04490968C1F38221034A515CC84069
:100A800000BD0000083802406E1C000800B5FFF7EA
:100A9000E7FF04490968C1F34231034A515CC84089
:100AA00000BD0000083802406E1C00082DE9F04728
:100AB000002400250026A1462548006800F00C000F
:100AC00020B1042805D008283AD105E0DFF8849049
:100AD00039E0DFF8849036E01D48001F006800F020
:100AE0003F041B48001F006800F4800078B11A48DA
:100AF0001749091F0968C1F38811A0FB017001465D
:100B0000224600233846FFF7AFFB05460EE01148AA
:100B10000F49091F0968C1F38811A0FB0170014644
:100B2000224600233846FFF79FFB05460848001F72
:100B30000068C0F30140401C4600B5FBF6F902E036
:100B4000DFF8109000BF00BF4846BDE8F087000006
:100B5000083802400024F40040787D01F8B50446CE
:100B60000CB90120F8BD207800F00100002874D0F5
:100B7000F948006800F00C0004280DD0F648006821
:100B800000F00C00082813D1F348001F006800F49F
:100B90008000B0F5800F0BD1EF4808380068C0F333
:100BA0004040002859D06068002856D10120D9E77C
:100BB00000BF6068B0F5803F08D1E748083800689A
:100BC00040F48030E449083908601EE06068B0F500
:100BD000A02F0DD1E0480838006840F48020DE499D
:100BE000083908600846006840F4803008600CE06E
:100BF000D9480838006820F48030D749083908609F
:100C00000846006820F48020086000BF606890B14A
:100C1000FFF784FD054606E0FFF780FD401B6428D2
:100C200001D903209EE7CC4808380068C0F3404053
:100C30000028F1D011E0FFF771FD054606E0FFF74F
:100C40006DFD401B642801D903208BE7C24808389A
:100C50000068C0F340400028F1D1207800F0020085
:100C600002285FD1BC48006800F00C0058B1BA48B7
:100C7000006800F00C0008281CD1B748001F00686D
:100C800000F48000B0B9B44808380068C0F34000F0
:100C900020B1E068012801D0012063E7AE480838A0
:100CA000006820F0F800216940EAC100AA4908392B
:100CB000086037E0E06800B30120A8490860FFF74A
:100CC0002DFD054606E0FFF729FD401B022801D94E
:100CD000032047E7A04808380068C0F34000002818
:100CE000F1D09D480838006820F0F800216940EAFA
:100CF000C10099490839086014E00020974908604C
:100D0000FFF70CFD054606E0FFF708FD401B022833
:100D100001D9032026E7904808380068C0F3400056
:100D20000028F1D1207800F0080008282CD1606953
:100D3000A8B101208A490860FFF7F0FC054606E0EB
:100D4000FFF7ECFC401B022801D903200AE7824888
:100D50006C300068C0F340000028F1D014E000209F
:100D60007F490860FFF7DAFC054606E0FFF7D6FC8E
:100D7000401B022801D90320F4E677486C30006854
:100D8000C0F340000028F1D1207800F004000428CE
:100D900070D1002770483830006800F0805090B95A
:100DA00000BF002000906C483830006840F0805050
:100DB0006949383108600846006800F080500090AA
:100DC00000BF00BF01276748006800F48070B0B919
:100DD0006448006840F4807062490860FFF79EFC38
:100DE000054606E0FFF79AFC401B022801D90320C4
:100DF000B8E65C48006800F480700028F2D000BFBC
:100E0000A068012808D154486830006840F001000B
:100E10005149683108601DE0A06805280DD14E4891
:100E20006830006840F004004B49683108600846AB
:100E3000006840F0010008600CE047486830006836
:100E400020F001004449683108600846006820F03D
:100E50000400086000BFA068A8B1FFF75FFC05466A
:100E600009E0FFF75BFC401B41F28831884202D960
:100E7000032077E626E0384868300068C0F3400079
:100E80000028EED013E0FFF749FC054608E0FFF725
:100E900045FC401B41F28831884201D9032061E6BC
:100EA0002D4868300068C0F340000028EFD1012FC2
:100EB00007D129483830006820F080502649383161
:100EC000086000BFA069002845D02348006800F0F2
:100ED0000C0008285DD0A069022845D100201F49D8
:100EE0000866FFF71BFC054606E0FFF717FC401BF2
:100EF000022801D9032035E6174808380068C0F3F6
:100F000040600028F1D1D4E907010843616A40EA52
:100F100081110122A06AC2EB500041EA00412C205D
:100F2000005D41EA00600C49091F086001200B497F
:100F30000866FFF7F3FB054606E0FFF7EFFB401BF3
:100F4000022801D903200DE6034808380068C0F3E1
:100F500040600028F1D049E00838024000004742D4
:100F6000800E474200700040002021490866FFF7CC
:100F7000D5FB054606E0FFF7D1FB401B022801D94F
:100F80000320EFE51B480068C0F340600028F2D161
:100F90002CE0A069012800D1E4E51648001D066890
:100FA000A069012820D006F48001E06981421BD1AC
:100FB00006F03F01206A814216D147F6C0703040EA
:100FC000616AB0EB811F0FD106F440310122A06AA3
:100FD000C2EB5000B1EB004F06D106F070612C203F
:100FE000005DB1EB006F01D00120BBE50020B9E549
:100FF000000047420038024070B504462546681E8E
:10100000B0F1807F01D301200FE0681E4FF0E02196
:1010100048610F214FF0FF3000F0DCFD00204FF061
:10102000E021886107200861002070BD704770478B
:101030002DE9F84F0446206805682068C6682068D6
:1010400047694FF00009CA4605F00F09B9F1000FD2
:101050000AD105F0200038B106F0200020B120466A
:1010600000F073FBBDE8F88FB9F1000F7CD007F0FA
:10107000010018B906F49070002875D005F0010041
:1010800030B106F4807018B1606C40F0010060640B
:1010900005F0040030B107F0010018B1606C40F0B9
:1010A0000200606405F0020030B107F0010018B1E1
:1010B000606C40F00400606405F0080048B106F080
:1010C000200010B907F0010018B1606C40F0080072
:1010D0006064606C002846D005F0200028B106F05E
:1010E000200010B1204600F030FB20684069C0F3BA
:1010F000801A606C00F0080010B9BAF1000F2DD012
:10110000204600F0DCFA2068406900F040004028EA
:1011100020D100BF00BF2168143151E8001F21F029
:1011200040002168143141E80002002AF3D100BFD9
:10113000E06B50B17F48E16B0865E06BFFF7CBF9DE
:1011400088B1E06B016D88470DE02046FFF76FFF27
:1011500009E009E02046FFF76AFF04E02046FFF7B8
:1011600066FF002060647DE7206B012878D105F0E0
:101170001000002874D006F010000028FAD000BF3C
:10118000002000902068006800902068406800906F
:1011900000BF00BF2068406900F04000402870D1C7
:1011A000E06B006840681FFA80F8B8F1000F58D073
:1011B000A08D404555DDA4F82E80E06BC069B0F5E8
:1011C000807F43D000BF00BF21680C3151E8001F71
:1011D00021F4807021680C3141E80002002AF3D12B
:1011E00000BF00BF00BF2168143151E8001F21F08B
:1011F00001002168143141E80002002AF3D100BF48
:1012000000BF00BF2168143151E8001F21F04000E9
:101210002168143141E80002002AF3D100BF2020E8
:1012200084F842000020206300BF00BF21680C3119
:1012300051E8001F21F0100021680C3141E8000244
:10124000002AF3D100BFE06BFFF7EFF802206063E4
:10125000A08DE28D801A81B22046FFF7E7FE0EE0F6
:1012600052E0A08D40450AD1E06BC069B0F5807FA7
:1012700005D102206063A18D2046FFF7D7FEF1E67D
:10128000FFE7A08DE18D401A1FFA80F8E08DD0B302
:10129000B8F1000F37D000BF00BF21680C3151E812
:1012A000001F21F4907021680C3141E80002002AEF
:1012B000F3D100BF00BF00BF2168143151E8001F07
:1012C00021F001002168143141E80002002AF3D125
:1012D00000BF202084F842000020206300BF00BF30
:1012E00021680C3151E8001F21F0100021680C31F9
:1012F00041E80002002AF3D100BF022060634146AA
:101300002046FFF793FEADE605F0800030B106F011
:10131000800018B1204600F0ADFBA3E605F04000C8
:1013200030B106F0400018B1204600F0FEF999E611
:1013300000BF97E6AD16000810B504460CB90120B1
:1013400010BDA06900B100E000BF94F8410028B9C9
:10135000002084F84000204600F02AF8242084F879
:1013600041002068C06820F400502168C860204611
:1013700000F06AFA2068006920F490402168086152
:101380002068406920F02A00216848612068C06810
:1013900040F400502168C86000206064202084F878
:1013A000410084F842000020606300BFC8E70000ED
:1013B00010B586B00446142101A8FEF7CCFF2E49D3
:1013C0002068884255D100BF002000902B4800685B
:1013D00040F01000294908600846006800F010003D
:1013E000009000BF00BF00BF0020009023481438C9
:1013F000006840F00200214914390860084600687E
:1014000000F00200009000BF00BF00BF002000906D
:101410000846006840F0010008600846006800F0D7
:101420000100009000BF00BF8020019002200290C8
:1014300000200390032004900720059001A9104884
:10144000FFF772F84FF40070019002200290002024
:101450000390032004900720059001A90948FFF795
:1014600063F8002211462520FFF7E6F92520FFF753
:10147000CFF906B010BD0000001001404438024012
:10148000000402400000024070472DE9F84F044676
:101490000E46174699464FF0000A94F8410020285E
:1014A00050D106B117B90120BDE8F88F0020606463
:1014B000212084F84100FFF731F98246A784E784B0
:1014C000A068B0F5805F04D1206910B90025B0464E
:1014D00002E035464FF000081EE05346002280210E
:1014E0002046CDF8009000F0F5FA20B1202084F8D5
:1014F00041000320D8E745B9B8F80000C0F3080060
:101500002168486008F1020803E0287821684860F3
:101510006D1CE08C401EE084E08C0028DDD1534639
:10152000002240212046CDF8009000F0D3FA20B1EF
:10153000202084F841000320B6E7202084F84100F1
:101540000020B1E70220AFE7704700BFFEE70000D0
:1015500008B500BF002000901548006840F0010069
:10156000134908600846006800F00100009000BFC1
:1015700000BF00BF002000900846006840F0020055
:1015800008600846006800F00200009000BF00BF3D
:1015900000BF002000900846006840F0800008600E
:1015A0000846006800F08000009000BF00BF08BD42
:1015B0003038024010B50B480B4908604FF4E13059
:1015C0004860002108488160C16001610C214161CF
:1015D00000218161C161FFF7AFFE08B1FEF722FF74
:1015E00010BD0000001001407800002000BFFEE7A1
:1015F00000BFFEE77047704710B5FFF795F810BDC4
:1016000000B593B0302107A8FEF7A5FE142102A86B
:10161000FEF7A1FE00BF002001901D48006840F0C9
:1016200080501B4908600846006800F08050019017
:1016300000BF00BF00BF002001901648006840F4C2
:101640008040144908600846006800F4804001901A
:1016500000BF00BF0220079001200A9010200B90CD
:1016600000200D9007A8FFF779FA08B1FEF7DAFE1F
:101670000F20029000200390049005900690002116
:1016800002A8FFF72BF908B1FEF7CCFE13B000BD9E
:1016900040380240007000400348006840F4700089
:1016A000014908607047000088ED00E070B504460D
:1016B000A56B0020E8852846FFF7B9FC70BD00BF88
:1016C00000BF02680C3252E8002F22F490710268C9
:1016D0000C3242E80013002BF3D100BF00BF00BF63
:1016E0000268143252E8002F22F00101026814321D
:1016F00042E80013002BF3D100BF016B01290ED18A
:1017000000BF00BF02680C3252E8002F22F0100127
:1017100002680C3242E80013002BF3D100BF2021F5
:1017200080F8421000210163704710B5044620681C
:10173000C06820F040002168C860202084F8410083
:101740002046FFF701FF002010BDF8B50446002534
:10175000002694F84200222873D1A068B0F5805F7B
:101760000BD1206948B9A66A20684068C0F3080018
:101770003080A06A801CA06214E0A56AA068B0F561
:10178000805F03D0A06828B9206918B92068406834
:10179000287004E02068406800F07F002870A06A8C
:1017A000401CA062E08D401E80B2E085002846D13A
:1017B0002068C06820F020002168C8602068C068E8
:1017C00020F480702168C8602068406920F0010022
:1017D00021684861202084F8420000206063206B6B
:1017E000012826D10020206300BF00BF21680C31F2
:1017F00051E8001F21F0100021680C3141E800027F
:10180000002AF3D100BF2068006800F01000102803
:101810000AD100BF00200090206800680090206876
:101820004068009000BF00BFA18D2046FFF7FEFB7F
:1018300002E02046FFF728FE0020F8BD01E000206E
:10184000FBE70220F9E700002DE9F84F0446206885
:10185000006920F44050E16808432168086121696B
:10186000A068084361690843E16908430090206863
:10187000C06849F20C618843009908432168C86038
:101880002068406920F44070A169084321684861DC
:1018900076492068884203D075492068884203D180
:1018A000FFF7F4F8814602E0FFF7E0F88146E069CF
:1018B000B0F5004F6CD102206168A0FB01500346D7
:1018C0001920A9FB007001462A463846FEF7CCFCD9
:1018D0006421B0FBF1F04FEA001A02206168A0FB1E
:1018E00001510B461920A9FB00712A463846FEF724
:1018F000BBFC834602206168A0FB0150034619200F
:10190000A9FB00712A463846FEF7AEFC6421B0FB05
:10191000F1F000EBC00101EB0010ABEB80003221D5
:1019200001EBC0006421B0FBF1F000F0F8000AEB1D
:10193000400A02206168A0FB015003461920A9FB60
:10194000007001462A463846FEF78EFC8346022088
:101950006168A0FB015003461920A9FB00712A46CB
:101960003846FEF781FC6421B0FBF1F000EBC001CA
:1019700001EB0010ABEB8000322101EBC0006421D1
:10198000B0FBF1F000F007005044216888606AE085
:1019900004206168A0FB015003461920A9FB0070D8
:1019A00001462A463846FEF75FFC824604206168FD
:1019B000A0FB015003461920A9FB007001462A46EE
:1019C0003846FEF751FC6421B0FBF1F000EBC0019A
:1019D00001EB0010AAEB8000322101EB0010642122
:1019E000B0FBF1F000F0F00A04206168A0FB017088
:1019F00003461920A9FB00513A462846FEF734FC5D
:101A00006421B0FBF1F00AEB001A04206168A0FB2E
:101A100001510B461920A9FB00712A463846FEF7F2
:101A200023FC834604206168A0FB01500346192073
:101A3000A9FB007001462A463846FEF715FC6421D2
:101A4000B0FBF1F000EBC00101EB0010ABEB80004C
:101A5000322101EB00106421B0FBF1F000F00F0027
:101A6000504421688860BDE8F88F000000100140F4
:101A700000140140014691F84100212828D18868CE
:101A8000B0F5805F0BD1086948B90A6A1088C0F3C5
:101A900008000B685860086A801C086205E00B6A41
:101AA000581C086218780B685860C88C401E80B2B9
:101AB000C88458B90868C06820F080000B68D860F6
:101AC0000868C06840F040000B68D860002070478C
:101AD0000220FCE72DE9F84304460D4617469846D8
:101AE000089E31E0701C70B3FEF718FEA0EB0800F2
:101AF000B04200D816B90320BDE8F8832068C0685A
:101B000000F00400F8B1802D1ED0402D1CD02068BC
:101B10000068C0F3C000B0B100BF00200090206892
:101B20000068009020684068009000BF00BF204619
:101B3000FFF7C5FD0820606400BF002084F8400066
:101B400000BF0120D8E7FFE7206800682840A842CE
:101B500001D1012000E00020B842C3D00020CBE733
:101B600010B51348FFF764FA11480068006800F0E8
:101B7000200060B10E48006840680E490E4A127895
:101B800088540D480078401C0B4908700FE0084845
:101B90000068006800F0100048B10548006840681F
:101BA000054800780549087000200349087010BDF9
:101BB0007800002014000020010000200000002018
:101BC00000BFFEE702480068C0F302207047000033
:101BD0000CED00E010B5002804DB0A07130E054ADF
:101BE000135406E00A07140E034A00F00F031B1FEC
:101BF000D45410BD00E400E018ED00E0FEF7A0FDB5
:101C0000FFF7FEFCFFF7A4FCFFF7D4FC0D480068CB
:101C1000C06840F020000B490968C86009480068A6
:101C2000C06840F0100007490968C86008E06423F4
:101C3000082205A10348FFF728FCC820FEF760FC36
:101C4000F5E70000780000204142434445460D0A74
:101C5000000000004FF04070E1EE100A70470000F5
:101C6000000000000000010203040607080900004C
:101C70000000010203040000981C0008000000207E
:101C800014000000C4010008AC1C0008140000206F
:101C90000C070000E0010008000000000000000048
:0C1CA00010000000010000000024F4000F
:040000050800018965
:00000001FF
