:020000040800F2
:10000000780600205502000851140008C1130008AA
:100010004D1400084D040008F5150008000000000C
:10002000000000000000000000000000C5140008EF
:100030005104000800000000C11400081D1500084C
:100040006F0200086F0200086F0200086F020008CC
:100050006F0200086F0200086F0200086F020008BC
:100060006F0200086F0200086F0200086F020008AC
:100070006F0200086F0200086F0200086F0200089C
:100080006F0200086F0200086F0200086F0200088C
:100090006F0200086F0200086F0200086F0200087C
:1000A0006F0200086F0200086F0200086F0200086C
:1000B0006F0200086F0200086F0200086F0200085C
:1000C0006F0200086F0200086F0200086F0200084C
:1000D0006F0200086F0200086F0200086F0200083C
:1000E0006F0200086F0200086F0200086F0200082C
:1000F0006F0200086F0200086F0200086F0200081C
:100100006F0200086F0200086F0200086F0200080B
:100110006F0200086F0200086F0200086F020008FB
:100120006F0200086F0200086F0200086F020008EB
:100130006F0200086F0200086F0200086F020008DB
:100140006F0200086F0200086F0200086F020008CB
:100150006F0200086F0200086F0200086F020008BB
:100160006F0200086F0200086F0200086F020008AB
:100170006F0200086F0200086F0200080000000014
:100180006F0200086F02000800F002F800F052F859
:1001900014A696E8000CB244B344DA4501D100F04D
:1001A00049F8BAE80F000FA696E83000A5EB040561
:1001B00004EB0607AAEB0704A7F101074FEA1515A0
:1001C0004FEA3414A4F10104AC4201D300F032F838
:1001D00013F0010F18BFFB1A43F0010300F001F800
:1001E000DBE718471415000034150000103A24BF4F
:1001F00078C878C1FAD8520724BF30C830C144BF8C
:1002000004680C6070470000704700000023002461
:1002100000250026103A28BF78C1FBD8520728BF16
:1002200030C148BF0B6070471FB501F050FA1FBDC9
:1002300010B510BD00F0D0F81146FFF7F5FF01F042
:1002400023FA00F0EEF803B4FFF7F2FF03BC00F06E
:10025000F5F800000948804709480047FEE7FEE737
:10026000FEE7FEE7FEE7FEE7FEE7FEE7FEE7FEE766
:1002700004480549054A064B70470000E11500088F
:10028000890100087800002078060020780200200C
:100290007802002053EA020C00F069802DE9F04B4F
:1002A0004FF00006002B1FBFB3FA83F503FA05F4E5
:1002B00024FA05F65E4012BF1643B2FA82F502FA3E
:1002C00005F4C5F120051EBF22FA05FC44EA0C0422
:1002D000203556EA044C4FEA144418BF641C4FF012
:1002E00000084FF00009904271EB030C39D300294C
:1002F00019BFB1FA81F701FA07F6B0FA80F700FAF0
:1003000007F6C7F120071EBF20FA07FC46EA0C06D5
:100310002037B6FBF4FCA7EB0507103F07F01F0BD7
:10032000CBF120062CFA06F60CFA0BFB44BFB346C1
:100330000026202FA4BF5E464FF0000B5BEA060CA0
:1003400008BF4FF0010B19EB0B0948EB0608ABFB9C
:10035000027C06FB02CC0BFB03CCC01B71EB0C0137
:10036000C1E70B46024641464846BDE8F08B13B54F
:10037000084318BF4FF0FF300146AFF30080BDE8DF
:100380001C4070474FF0000200B513469446964655
:10039000203922BFA0E80C50A0E80C50B1F1200198
:1003A000BFF4F7AF090728BFA0E80C5048BF0CC046
:1003B0005DF804EB890028BF40F8042B08BF7047A4
:1003C00048BF20F8022B11F0804F18BF00F8012B16
:1003D0007047704770477047754600F02BF8AE467F
:1003E00005006946534620F00700854618B020B541
:1003F000FFF73EFFBDE820404FF000064FF000073A
:100400004FF000084FF0000BAC46ACE8C009ACE878
:10041000C009ACE8C009ACE8C00921F007018D466D
:10042000704710B50446AFF300802046BDE8104089
:10043000FFF709BF0048704710000020014918204D
:10044000ABBEFEE72600020070470000FFE7FEE7B4
:100450007047000072B6FFE7FEE700008EB00D9017
:100460000C9100200A90099008900B90FFE70B98E0
:100470000F2800F2CC81FFE70B99012088400A90F9
:100480000C9800680A990840099009980A998842CE
:1004900040F0B881FFE70C98406800F003000128A5
:1004A00007D0FFE70C98406800F0030002282FD126
:1004B000FFE70D98806808900B984100032000FA30
:1004C00001F10898884308900C98C0680B9949007E
:1004D00000FA01F108980843089008980D9988607F
:1004E0000D98406808900B99012000FA01F10898D6
:1004F000884308900C984068C0F300100B9900FAEC
:1005000001F108980843089008980D994860FFE7A2
:100510000C98406800F00300032818D0FFE70D98FE
:10052000C06808900B984100032000FA01F1089878
:10053000884308900C9880680B99490000FA01F1F3
:1005400008980843089008980D99C860FFE70C9830
:10055000406800F00300022826D1FFE70D980B99B0
:100560006FF0030202EA51010844006A08900B98F8
:1005700000F0070081000F2000FA01F1089888437D
:1005800008900C9800690B9901F00701890000FAA6
:1005900001F108980843089008980D990B9B02EA0E
:1005A000530211440862FFE70D98006808900B9809
:1005B0004100032000FA01F10898884308900C9844
:1005C000406800F003000B99490000FA01F1089817
:1005D0000843089008980D9908600C988079800766
:1005E000002800F00E81FFE7FFE70020079043F6A8
:1005F0004400C4F20200016841F4804101600068D7
:1006000000F4804007900798FFE70B9820F0030064
:1006100043F60801C4F20101405808900B9800F01D
:10062000030081000F2000FA01F108988843089028
:100630000D980021C4F20201884203D1FFE7002097
:1006400006905EE00D9840F20041C4F2020188423B
:1006500003D1FFE70120059050E00D9840F600011E
:10066000C4F20201884203D1FFE70220049042E075
:100670000D9840F60041C4F20201884203D1FFE721
:100680000320039034E00D9841F20001C4F202010E
:10069000884203D1FFE70420029026E00D9841F242
:1006A0000041C4F20201884203D1FFE70520019016
:1006B00018E00D9841F60001C4F20201884203D10E
:1006C000FFE7062000900AE00D9941F60042C4F2CF
:1006D00002020820914208BF07200090FFE700981F
:1006E0000190FFE701980290FFE702980390FFE76F
:1006F00003980490FFE704980590FFE7059806909B
:10070000FFE70698C0B20B9901F00301890000FAD7
:1007100001F108980843089008980B9921F003010B
:1007200043F60802C4F20102885043F60840C4F2BE
:1007300001000068089009990898884308900C986F
:100740008079C006002805D5FFE709990898084375
:100750000890FFE7089843F60841C4F201010860D9
:1007600043F60C40C4F2010000680890099908980B
:10077000884308900C9880798006002805D5FFE70B
:100780000999089808430890FFE7089843F60C4138
:10079000C4F20101086043F60440C4F2010000689D
:1007A000089009990898884308900C9880798007E8
:1007B000002805D5FFE70999089808430890FFE746
:1007C000089843F60441C4F20101086043F6004072
:1007D000C4F20100006808900999089888430890BD
:1007E0000C988079C00728B1FFE709990898084359
:1007F0000890FFE7089843F60041C4F20101086041
:10080000FFE7FFE7FFE70B9801300B902FE60EB0F4
:100810007047000082B00190ADF802108DF8012001
:100820009DF8010028B1FFE7BDF802000199886139
:1008300005E0BDF80200000401998861FFE702B0FD
:100840007047000040F27000C2F20000006870477C
:1008500040F20400C2F20000027840F27001C2F2DD
:1008600000010868104408607047000080B543F636
:100870000041C4F20201086840F400700860086892
:1008800040F480600860086840F4807008600320CD
:1008900000F080F80F2000F005F800F03BF8002091
:1008A00080BD000080B582B0009040F20000C2F22E
:1008B0000000006840F20401C2F200010A784FF41F
:1008C0007A71B1FBF2F1B0FBF1F000F071FD20B1F3
:1008D000FFE701208DF8070018E000980F280DD8D9
:1008E000FFE700994FF0FF30002200F039F8009840
:1008F00040F20801C2F20001086003E001208DF817
:10090000070003E000208DF80700FFE79DF80700CF
:1009100002B080BD82B0FFE70020019043F64400A2
:10092000C4F20200016841F480410160006800F4F3
:10093000804001900198FFE7FFE70020009043F618
:100940004000C4F20200016841F08051016000687B
:1009500000F0805000900098FFE702B07047000060
:1009600080B586B08DF817000491039200200290A4
:1009700000F042FE02909DF9170001900298049940
:10098000039A00F067FD0146019800F03DFE06B0B5
:1009900080BD000080B582B00190019800F056FE45
:1009A00002B080BD80B584B002900191029820B958
:1009B000FFE701208DF80F0021E1019843F6004187
:1009C000C4F20201096801F00701884212D9FFE769
:1009D000019943F60040C4F202000170006800F083
:1009E00007000199884204D0FFE701208DF80F002D
:1009F00005E1FFE702980078800700282AD5FFE785
:100A0000029800784007002809D5FFE743F608015F
:100A1000C4F20201086840F4E0500860FFE7029861
:100A200000780007002809D5FFE743F60801C4F263
:100A30000201086840F460400860FFE743F60801DF
:100A4000C4F20201086820F0F000029A9268104394
:100A50000860FFE702980078C00700286ED0FFE723
:100A600002984068012811D1FFE743F60000C4F264
:100A70000200006800F400310020B0EB514F04D1B7
:100A8000FFE701208DF80F00B9E02CE002984068E4
:100A9000022805D0FFE702984068032811D1FFE73C
:100AA00043F60000C4F20200006800F0007100206C
:100AB000B0EB516F04D1FFE701208DF80F009EE0ED
:100AC00010E043F60000C4F20200006800F00201EA
:100AD0000020B0EB510F04D1FFE701208DF80F008B
:100AE0008DE0FFE7FFE743F60801C4F20201086862
:100AF00020F00300029A526810430860FFF7A2FE3C
:100B00000090FFE743F60800C4F20200006800F01E
:100B10000C0002994968B0EB810F0ED0FFE7FFF798
:100B200091FE0099401A41F28931884204D3FFE7CF
:100B300003208DF80F0062E0E4E7FFE7019843F639
:100B40000041C4F20201096801F00701884212D293
:100B5000FFE7019943F60040C4F20200017000680B
:100B600000F007000199884204D0FFE701208DF8CA
:100B70000F0044E0FFE702980078400700280CD5FA
:100B8000FFE743F60801C4F20201086820F4E050D0
:100B9000029AD26810430860FFE7029800780007C5
:100BA00000280DD5FFE743F60801C4F202010868EA
:100BB00020F46040029A126940EAC2000860FFE730
:100BC00000F022F843F60801C4F202010968C9B234
:100BD0000A0941F2E861C0F60001895CC84040F2B0
:100BE0000001C2F20001086040F20800C2F20000F9
:100BF0000068FFF757FE00208DF80F00FFE79DF813
:100C00000F0004B080BD000080B586B000200590C4
:100C100004900390029043F60800C4F202000068BA
:100C200000F00C000146019140B1FFE70198042853
:100C30000AD0FFE7019808280CD04FE042F20040AC
:100C4000C0F2F40002904FE041F60030C0F2B7006D
:100C5000029049E043F60400C4F20200016801F08A
:100C60003F01059100684002002813D5FFE743F6D5
:100C70000400C4F202000068C0F3881041F600319D
:100C8000C0F2B701A0FB0101059A0023FFF702FBA8
:100C9000049012E043F60400C4F202000068C0F3BE
:100CA000881042F20041C0F2F401A0FB0101059A54
:100CB0000023FFF7EFFA0490FFE743F60400C4F2C5
:100CC0000200006800F44031022000EBD1300390B4
:100CD00004980399B0FBF1F0029005E042F2004065
:100CE000C0F2F4000290FFE7029806B080BD000059
:100CF00080B586B00490049820B9FFE701208DF8F4
:100D0000170050E304980078C007002800F0A58081
:100D1000FFE743F60800C4F20200006800F00C0090
:100D2000042813D0FFE743F60800C4F2020000686D
:100D300000F00C0008281ED1FFE743F60400C4F2BF
:100D4000020000684002002815D5FFE743F60000C6
:100D5000C4F20200006800F400310020B0EB514FF3
:100D600008D0FFE70498406820B9FFE701208DF81C
:100D7000170018E370E0FFE704984068B0F5803F83
:100D800009D1FFE743F60001C4F20201086840F40C
:100D90008030086020E004984068B0F5A02F0DD1A5
:100DA000FFE743F60001C4F20201086840F4802026
:100DB0000860086840F4803008600CE043F60001E9
:100DC000C4F20201086820F480300860086820F44A
:100DD00080200860FFE7FFE7FFE704984068E8B17C
:100DE000FFE7FFF72FFD0390FFE743F60000C4F293
:100DF0000200006800F400310020B0EB514F0CD12C
:100E0000FFE7FFF71FFD0399401A652804D3FFE7AA
:100E100003208DF81700C6E2E7E71CE0FFF712FD9C
:100E20000390FFE743F60000C4F20200006800F4FC
:100E300000310020B0EB514F0CD0FFE7FFF702FD6F
:100E40000399401A652804D3FFE703208DF81700A3
:100E5000A9E2E7E7FFE7FFE7FFE7049800788007EC
:100E6000002840F19680FFE743F60800C4F2020034
:100E7000006810F00C0F13D0FFE743F60800C4F22F
:100E80000200006800F00C0008282CD1FFE743F6B0
:100E90000400C4F2020000684002002823D4FFE7E7
:100EA00043F60000C4F20200006800F002010020D6
:100EB000B0EB510F09D0FFE70498C068012804D0B7
:100EC000FFE701208DF817006DE243F60001C4F240
:100ED0000201086820F0F800049A126940EAC20092
:100EE0000860FFE754E00498C06870B3FFE7002192
:100EF000C4F2472101200860FFF7A4FC0390FFE73C
:100F000043F60000C4F20200006800F00201002075
:100F1000B0EB510F0CD1FFE7FFF794FC0399401A97
:100F2000032804D3FFE703208DF817003BE2E7E72F
:100F300043F60001C4F20201086820F0F800049AA8
:100F4000126940EAC200086021E00021C4F2472192
:100F500000200860FFF776FC0390FFE743F60000EF
:100F6000C4F20200006800F002010020B0EB510F53
:100F70000CD0FFE7FFF766FC0399401A032804D35F
:100F8000FFE703208DF817000DE2E7E7FFE7FFE733
:100F9000FFE704980078000700284BD5FFE7049886
:100FA000406918B3FFE740F68061C4F24721012091
:100FB0000860FFF747FC0390FFE743F67400C4F2B4
:100FC0000200006800F002010020B0EB510F0CD1CC
:100FD000FFE7FFF737FC0399401A032804D3FFE724
:100FE00003208DF81700DEE1E7E722E040F680619C
:100FF000C4F2472100200860FFF724FC0390FFE7BC
:1010000043F67400C4F20200006800F00201002000
:10101000B0EB510F0CD0FFE7FFF714FC0399401A17
:10102000032804D3FFE703208DF81700BBE1E7E7AF
:10103000FFE7FFE7049800784007002840F1CE80E2
:10104000FFE700208DF8070043F64000C4F20200DD
:101050000068C000002815D4FFE7FFE700200090DB
:1010600043F64000C4F20200016841F08051016083
:10107000006800F0805000900098FFE701208DF894
:101080000700FFE747F20000C4F200000068C00557
:10109000002822D4FFE747F20001C4F200010868EB
:1010A00040F480700860FFF7CDFB0390FFE747F244
:1010B0000000C4F200000068C00500280CD4FFE75F
:1010C000FFF7C0FB0399401A032804D3FFE703206E
:1010D0008DF8170067E1EAE7FFE7FFE7049880680B
:1010E000012809D1FFE743F67001C4F20201086844
:1010F00040F0010008601FE00498806805280DD1C9
:10110000FFE743F67001C4F20201086840F00400F2
:101110000860086840F0010008600CE043F67001C8
:10112000C4F20201086820F001000860086820F09D
:1011300004000860FFE7FFE7FFE704988068F8B164
:10114000FFE7FFF77FFB0390FFE743F67000C4F271
:101150000200006800F002010020B0EB510F0ED138
:10116000FFE7FFF76FFB0399401A41F2893188428C
:1011700004D3FFE703208DF8170014E1E5E71EE034
:10118000FFF760FB0390FFE743F67000C4F2020034
:10119000006800F002010020B0EB510F0ED0FFE715
:1011A000FFF750FB0399401A41F28931884204D37A
:1011B000FFE703208DF81700F5E0E5E7FFE79DF86E
:1011C0000700012809D1FFE743F64001C4F20201FC
:1011D000086820F080500860FFE7FFE70498806906
:1011E000002800F0DC80FFE743F60800C4F20200AC
:1011F000006800F00C00082800F08580FFE70498E4
:10120000806902285CD1FFE76021C4F247210020F9
:101210000860FFF717FB0390FFE743F60000C4F2F6
:101220000200006800F000710020B0EB516F0CD09C
:10123000FFE7FFF707FB0399401A032804D3FFE7F2
:1012400003208DF81700AEE0E7E70499C869D1F8EC
:1012500020C04B6A8A6A40EA0C0040EA8310D2033D
:101260004FF6FF739A43A2F580321043C96A40EAF1
:10127000016043F60401C4F2020108606021C4F277
:10128000472101200860FFF7DDFA0390FFE743F6EE
:101290000000C4F20200006800F000710020B0EB12
:1012A000516F0CD1FFE7FFF7CDFA0399401A0328DD
:1012B00004D3FFE703208DF8170074E0E7E721E08F
:1012C0006021C4F2472100200860FFF7BBFA0390B9
:1012D000FFE743F60000C4F20200006800F000716E
:1012E0000020B0EB516F0CD0FFE7FFF7ABFA03998A
:1012F000401A032804D3FFE703208DF8170052E0BB
:10130000E7E7FFE74AE004988069012804D1FFE796
:1013100001208DF8170046E043F60400C4F20200F5
:101320000068029004988069012831D0FFE7029894
:1013300000F480000499C969884229D1FFE7029826
:1013400000F03F000499096A884221D1FFE7029822
:1013500047F6C07108400499496AB0EB811F17D164
:10136000FFE7029800F440300499896AC9034FF6F8
:10137000FF729143A1F58031884209D1FFE70298BD
:1013800000F070600499C96AB0EB016F04D0FFE708
:1013900001208DF8170006E0FFE7FFE7FFE70020D8
:1013A0008DF81700FFE79DF8170006B080BD00001C
:1013B00080B582B00190019800F086F802B080BD3F
:1013C000FFE7FEE780B58AB00020099008900790FB
:1013D00006900590FFE70020049043F63000C4F229
:1013E0000200016841F001010160006800F00100A5
:1013F00004900498FFE7FFE70020039043F63000D5
:10140000C4F20200016841F080010160006800F050
:10141000800003900398FFE741F60040C4F2020009
:1014200002904FF4E051009100220192FFF7F2F98F
:10143000009A01990298059201220692079108915B
:1014400005A9FFF70BF80AB080BD0000FFE7FEE733
:10145000FFE7FEE788B0079006910592079800F035
:10146000070004900498C0F10700052803D3FFE7A4
:101470000420019004E00498C0F107000190FFE708
:101480000198039004980430062803D8FFE7002051
:10149000009003E0049803380090FFE70098029062
:1014A00006980399012202FA01F101390840029BD2
:1014B000984005999A40013A1140084308B0704796
:1014C000704700007047000080B582B0009000981F
:1014D0000138B0F1807F03D3FFE70120019019E0CC
:1014E000009801384EF21401CEF2000108604FF06E
:1014F000FF300F2100F088F84EF21801CEF2000103
:10150000002008604EF21002CEF2000207211160A6
:101510000190FFE7019802B080BD000080B5FFF7A1
:1015200097F980BD80B594B008A83021FEF72AFF56
:10153000002007900690059004900390FFE700209C
:10154000029043F64000C4F20200016841F080516D
:101550000160006800F0805002900298FFE7FFE70A
:101560000020019047F20000C4F20000016841F43D
:1015700080410160006800F4804001900198FFE71D
:10158000012008904FF48030099002200E904FF413
:1015900080010F9106211091A82111911290042031
:1015A000139008A8FFF7A4FB18B1FFE7FEF752FF5E
:1015B000FFE70F20039002200490002005904FF4D5
:1015C000A05006904FF48050079003A80521FFF724
:1015D000E9F918B1FFE7FEF73DFFFFE714B080BD62
:1015E0004EF68851CEF20001086840F470000860A1
:1015F00070470000FFE7FEE74EF60C50CEF2000009
:101600000068C0F30220704782B08DF80700009197
:101610009DF9070000280AD4FFE7009800019DF912
:1016200007104EF20042CEF2000288540BE0009800
:1016300000019DF8071001F00F014EF61452CEF292
:1016400000028854FFE702B07047000083B00290A8
:10165000029800F0070000904EF60C51CEF2000107
:101660000868019001984FF6FF0210400190019820
:10167000009A40EA02200022C0F2FA521043019080
:101680000198086003B0704780B584B000200390D3
:10169000FFF7ECF8FFF746FFFFF794FEFFE741F690
:1016A0000040C4F2020001904FF4805101220292E6
:1016B000FFF7B0F80198029A4FF40061FFF7AAF81B
:1016C0000198029A4FF48061FFF7A4F8E7E7F1EE82
:1016D000100A4FF6FF71C0F2C03120EA010040F05D
:1016E0004070E1EE100A70470000000000000000AA
:1016F000010203040607080918170008000000206B
:1017000010000000EC01000828170008100000205D
:10171000680600000C0200080024F400010000002C
:081720001000000000000000B1
:040000050800018965
:00000001FF
