:020000040800F2
:10000000000700202902000895180008E5150008DF
:10001000911800081F0400089F1C00080000000041
:100020000000000000000000000000009B18000815
:100030002304000800000000991800089D1800081B
:10004000430200084302000843020008430200087C
:10005000430200084302000843020008430200086C
:10006000430200084302000843020008430200085C
:10007000430200084302000843020008430200084C
:10008000430200084302000843020008430200083C
:10009000430200084302000843020008430200082C
:1000A000430200084302000843020008430200081C
:1000B000430200084302000843020008430200080C
:1000C00043020008430200084302000843020008FC
:1000D00043020008430200084302000843020008EC
:1000E00043020008430200084302000843020008DC
:1000F00043020008430200084302000843020008CC
:1001000043020008430200084302000843020008BB
:1001100043020008430200084302000843020008AB
:10012000430200084302000843020008430200089B
:10013000430200084302000843020008430200088B
:10014000430200084302000843020008430200087B
:10015000430200084302000843020008430200086B
:10016000430200084302000843020008430200085B
:100170004302000843020008430200080000000098
:10018000430200084302000800F002F800F03CF8C7
:100190000AA090E8000C82448344AAF10107DA45E2
:1001A00001D100F031F8AFF2090EBAE80F0013F0F8
:1001B000010F18BFFB1A43F001031847101C000081
:1001C000301C0000103A24BF78C878C1FAD8520712
:1001D00024BF30C830C144BF04680C6070470000C1
:1001E0000023002400250026103A28BF78C1FBD840
:1001F000520728BF30C148BF0B6070471FB501F0E0
:10020000D3FD1FBD10B510BD00F0CFF81146FFF7AC
:10021000F5FF01F063FD00F0EDF803B4FFF7F2FF26
:1002200003BC00F0F5F80000094880470948004782
:10023000FEE7FEE7FEE7FEE7FEE7FEE7FEE7FEE796
:10024000FEE7FEE704480549054A064B70470000F3
:10025000591900088901000800010020000700204A
:10026000000300200003002053EA020C00F0698024
:100270002DE9F04B4FF00006002B1FBFB3FA83F5BA
:1002800003FA05F424FA05F65E4012BF1643B2FAEB
:1002900082F502FA05F4C5F120051EBF22FA05FC1D
:1002A00044EA0C04203556EA044C4FEA144418BFC3
:1002B000641C4FF000084FF00009904271EB030CF2
:1002C00039D3002919BFB1FA81F701FA07F6B0FA5C
:1002D00080F700FA07F6C7F120071EBF20FA07FCD7
:1002E00046EA0C062037B6FBF4FCA7EB0507103FE7
:1002F00007F01F0BCBF120060CFA0BFB2CFA06F6CD
:1003000044BFB3460026202FA4BF5E464FF0000B2B
:100310005BEA060C08BF4FF0010B19EB0B09ABFBB6
:10032000027C48EB0608C01B06FB02CC0BFB03CC8F
:1003300071EB0C01C1E70B46024641464846BDE859
:10034000F08B13B54FF000004FF00001AFF30080C9
:10035000BDE81C4070474FF0000200B513469446BC
:100360009646203922BFA0E80C50A0E80C50B1F10D
:100370002001BFF4F7AF090728BFA0E80C5048BF21
:100380000CC05DF804EB890028BF40F8042B08BFBF
:10039000704748BF20F8022B11F0804F18BF00F8BB
:1003A000012B7047704770477047754600F02CF876
:1003B000AE4605006946534620F00700854618B052
:1003C00020B5FFF73FFFBDE820404FF000064FF09B
:1003D00000074FF000084FF0000B21F00701AC467A
:1003E000ACE8C009ACE8C009ACE8C009ACE8C00999
:1003F0008D46704710B50446AFF300802046BDE837
:100400001040FFF70ABF000000487047A00000201E
:1004100001491820ABBEFEE726000200704700BF6E
:10042000FEE7704772B600BFFEE7000070B50446F5
:1004300000F00AF906462546681C10B10448007809
:10044000054400BF00F000F9801BA842FAD370BD3C
:1004500008000020F8B502460B46002500240020C5
:100460000021D6E0012606FA01F51E6806EA050419
:10047000AC4274D11E7906F00306012E04D01E7919
:1004800006F00306022E13D190684F000326BE40EB
:10049000B0434F00DE68BE40304390605068012694
:1004A0008E40B0431E79C6F300168E403043506034
:1004B0001E7906F00306032E09D0D0684F000326EC
:1004C000BE40B0434F009E68BE403043D0601E79AE
:1004D00006F00306022E13D1CF0802F1200656F8CB
:1004E00027004E07F70E0F26BE40B0434F07FF0E02
:1004F0001E69BE403043CF0802F1200646F82700AF
:1005000010684F000326BE40B0431E7906F0030674
:100510004F00BE40304310605E6806F44036002E47
:1005200076D000BF002600963C4E366846F48046E2
:100530003A4F3E603E46366806F48046009600BF5D
:1005400000BF374E8F0856F827008E07370F0F264B
:10055000BE40B043334EB24202D1002624E057E001
:10056000314EB24201D101261EE0304EB24201D1DD
:10057000022619E02E4EB24201D1032614E02D4E80
:10058000B24201D104260FE02B4EB24201D1052622
:100590000AE02A4EB24201D1062605E0284EB242B8
:1005A00001D1072600E008268F073F0FBE403043E9
:1005B0001B4E8F0846F82700224E3068A0435E6825
:1005C00006F4801606B120431E4E3060361D30689A
:1005D000A0435E6806F4001606B12043194E361D8E
:1005E0003060184E361F3068A0435E6806F400364F
:1005F00006B12043134E361F3060361F3068A043CB
:100600005E6806F4803606B120430E4E083E306028
:10061000491C1029FFF426AFF8BD00004438024001
:100620000838014000000240000402400008024077
:10063000000C02400010024000140240001802406A
:10064000001C0240083C014001480068704700005F
:100650000000002003480068034909780844014964
:1006600008607047000000200800002010B50D4809
:10067000006840F400700B4908600846006840F4C8
:10068000806008600846006840F4807008600320BD
:1006900000F092F80F2000F007F800F02BF800208F
:1006A00010BD0000003C024070B504460E480078C2
:1006B0004FF47A71B1FBF0F00C490968B1FBF0F529
:1006C000284600F0F5FB08B1012070BD102C07D2C0
:1006D00000222146501E00F031F80548046001E078
:1006E0000120F2E70020F0E7080000200C000020C5
:1006F0000400002008B500BF002000900E480068EC
:1007000040F480400C4908600846006800F48040CE
:10071000009000BF00BF00BF00200090081F0068CD
:1007200040F08050091F08600846006800F08050C3
:10073000009000BF00BF08BD443802402DE9F05FC3
:1007400080460D461646002701F0ACFA07463946AA
:100750002A46334601F00700C0F1070ABAF1040F38
:1007600002D94FF0040A01E0C0F1070AD14600F1B6
:10077000040ABAF1070F02D24FF0000A01E0A0F11B
:10078000030AD4464FF0010A0AFA09FAAAF1010A4B
:100790000AEA020A0AFA0CFA4FF0010B0BFA0CFBF8
:1007A000ABF1010B0BEA030B4AEA0B04214640466E
:1007B00001F080FABDE8F09F00BF00F00702064B91
:1007C00019684FF6FF031940044B0B4343EA02211B
:1007D000014B196000BF70470CED00E00000FA0506
:1007E00070B504460D460CB9012070BD584800682C
:1007F00000F00700A84209D255490D70084600686C
:1008000000F00700A84201D00120EEE7207800F0B8
:10081000020002281DD1207800F00400042805D130
:100820004C48006840F4E0504A490860207800F0E5
:100830000800082805D14748006840F46040454951
:1008400008604448006820F0F000A168084341496E
:100850000860207800F00100A8B36068012807D183
:100860003C4808380068C0F34040B8B90120BCE7F4
:100870006068022802D06068032807D1354808382C
:100880000068C0F3406048B90120AEE7314808383D
:100890000068C0F3400008B90120A6E72D480068B1
:1008A00020F00300616808432A490860FFF7CCFE86
:1008B000064609E0FFF7C8FE801B41F288318842F6
:1008C00002D9032091E707E02248006800F00C00FD
:1008D0006168B0EB810FEDD11D48006800F00700A2
:1008E000A84209D91A490D700846006800F00700AF
:1008F000A84201D0012078E7207800F00400042805
:1009000007D11448006820F4E050E1680843114919
:100910000860207800F00800082808D10D48006819
:1009200020F46040216940EAC1000A49086000F0F3
:1009300019F808490968C1F30311074A515CC84016
:100940000649086006480068FFF7AEFE00204CE745
:10095000003C024008380240B21D00080C00002094
:10096000040000202DE9F047002400250026A146C0
:100970002548006800F00C0020B1042805D00828A4
:100980003AD105E0DFF8849039E0DFF8849036E072
:100990001D48001F006800F03F041B48001F00684E
:1009A00000F4800078B11A481749091F0968C1F39B
:1009B0008811A0FB01700146224600233846FFF74C
:1009C00053FC05460EE011480F49091F0968C1F3A1
:1009D0008811A0FB01700146224600233846FFF72C
:1009E00043FC05460848001F0068C0F30140401C56
:1009F0004600B5FBF6F902E0DFF8109000BF00BF3B
:100A00004846BDE8F0870000083802400024F400A2
:100A1000001BB700F8B504460CB90120F8BD2078DA
:100A200000F00100002874D0F948006800F00C00C4
:100A300004280DD0F648006800F00C00082813D1F7
:100A4000F348001F006800F48000B0F5800F0BD160
:100A5000EF4808380068C0F34040002859D060686B
:100A6000002856D10120D9E700BF6068B0F5803F6B
:100A700008D1E7480838006840F48030E449083974
:100A800008601EE06068B0F5A02F0DD1E04808387E
:100A9000006840F48020DE49083908600846006894
:100AA00040F4803008600CE0D9480838006820F431
:100AB0008030D749083908600846006820F4802053
:100AC000086000BF606890B1FFF7BEFD054606E014
:100AD000FFF7BAFD401B642801D903209EE7CC48EC
:100AE00008380068C0F340400028F1D011E0FFF75B
:100AF000ABFD054606E0FFF7A7FD401B642801D9C2
:100B000003208BE7C24808380068C0F34040002843
:100B1000F1D1207800F0020002285FD1BC480068C3
:100B200000F00C0058B1BA48006800F00C0008282A
:100B30001CD1B748001F006800F48000B0B9B44869
:100B400008380068C0F3400020B1E068012801D0F7
:100B5000012063E7AE480838006820F0F8002169FA
:100B600040EAC100AA490839086037E0E06800B3EC
:100B70000120A8490860FFF767FD054606E0FFF77A
:100B800063FD401B022801D9032047E7A04808382D
:100B90000068C0F340000028F1D09D480838006884
:100BA00020F0F800216940EAC1009949083908603D
:100BB00014E0002097490860FFF746FD054606E06F
:100BC000FFF742FD401B022801D9032026E7904889
:100BD00008380068C0F340000028F1D1207800F008
:100BE000080008282CD16069A8B101208A49086052
:100BF000FFF72AFD054606E0FFF726FD401B022809
:100C000001D903200AE782486C300068C0F3400035
:100C10000028F1D014E000207F490860FFF714FDA0
:100C2000054606E0FFF710FD401B022801D903200E
:100C3000F4E677486C300068C0F340000028F1D13A
:100C4000207800F00400042870D100277048383064
:100C5000006800F0805090B900BF002000906C4800
:100C60003830006840F080506949383108600846E3
:100C7000006800F08050009000BF00BF0127674867
:100C8000006800F48070B0B96448006840F4807077
:100C900062490860FFF7D8FC054606E0FFF7D4FC80
:100CA000401B022801D90320B8E65C48006800F424
:100CB00080700028F2D000BFA068012808D15448F5
:100CC0006830006840F001005149683108601DE05B
:100CD000A06805280DD14E486830006840F0040037
:100CE0004B49683108600846006840F00100086020
:100CF0000CE047486830006820F001004449683142
:100D000008600846006820F00400086000BFA06882
:100D1000A8B1FFF799FC054609E0FFF795FC401BD9
:100D200041F28831884202D9032077E626E038482C
:100D300068300068C0F340000028EED013E0FFF7F1
:100D400083FC054608E0FFF77FFC401B41F2883139
:100D5000884201D9032061E62D4868300068C0F35D
:100D600040000028EFD1012F07D129483830006812
:100D700020F0805026493831086000BFA069002863
:100D800045D02348006800F00C0008285DD0A06919
:100D9000022845D100201F490866FFF755FC05468B
:100DA00006E0FFF751FC401B022801D9032035E67D
:100DB000174808380068C0F340600028F1D1D4E932
:100DC00007010843616A40EA81110122A06AC2EB6F
:100DD000500041EA00412C20005D41EA00600C49CE
:100DE000091F086001200B490866FFF72DFC054626
:100DF00006E0FFF729FC401B022801D903200DE67D
:100E0000034808380068C0F340600028F1D049E08A
:100E10000838024000004742800E47420070004000
:100E2000002021490866FFF70FFC054606E0FFF7A2
:100E30000BFC401B022801D90320EFE51B4800688A
:100E4000C0F340600028F2D12CE0A069012800D155
:100E5000E4E51648001D0668A069012820D006F4C4
:100E60008001E06981421BD106F03F01206A814286
:100E700016D147F6C0703040616AB0EB811F0FD1C8
:100E800006F440310122A06AC2EB5000B1EB004FE2
:100E900006D106F070612C20005DB1EB006F01D02F
:100EA0000120BBE50020B9E50000474200380240C0
:100EB00070B504462546681EB0F1807F01D301203D
:100EC0000FE0681E4FF0E02148610F214FF0FF3026
:100ED00000F0F0FE00204FF0E0218861072008615B
:100EE000002070BD10B50346002200BF93F83C00FF
:100EF000012801D1022010BD012083F83C0000BF71
:100F000022F0FF00CC6840EA040222F440708C68B2
:100F100040EA040222F480604C6840EA040222F4B1
:100F200000600C6840EA040222F480500C6940EA38
:100F3000040222F400504C6940EA040222F480408A
:100F4000CC6940EA04021868426400BF002083F8BC
:100F50003C0000BF00BFCEE730B502460B4600BFE5
:100F600092F83C00012801D1022030BD012082F816
:100F70003C0000BF022082F83D0010684468106801
:100F8000816824F070041868044310684460184DA8
:100F90001068A8421BD01068B0F1804F17D0154DD3
:100FA0001068A84213D0144D1068A8420FD0134DFA
:100FB0001068A8420BD0124D1068A84207D0114DFE
:100FC0001068A84203D0104D1068A84205D121F046
:100FD00080015868014310688160012082F83D005B
:100FE00000BF002082F83C0000BF00BFBDE700004A
:100FF000000001400004004000080040000C0040D8
:1010000000040140004001400018004010B50446B3
:101010000CB9012010BD94F83D0028B9002084F8D7
:101020003C00204600F026F8022084F83D00211DF7
:10103000206800F09BFC012084F8460000BF84F883
:101040003E0001213F20015540200155412001551E
:1010500000BF00BF012084F8420043200155442016
:1010600001554520015500BF012084F83D000020B6
:10107000D0E7000008B5144A016891420FD100BFC3
:10108000002100911149096841F001010F4A1160E6
:101090001146096801F00101009100BF13E00C4AFC
:1010A000016891420FD100BF0021009107490968F2
:1010B00041F00201054A11601146096801F0020180
:1010C000009100BF00BF08BD00000140443802404D
:1010D00000040140014691F83D00012801D00120A3
:1010E0007047022081F83D001A4B086898421BD0D7
:1010F0000868B0F1804F17D0174B0868984213D09A
:10110000164B086898420FD0154B086898420BD0D0
:10111000144B0868984207D0134B0868984203D0D4
:10112000124B086898420CD10868806800F00702EA
:10113000062A0CD00868006840F001000B681860AF
:1011400005E00868006840F001000B6818600020A6
:10115000C6E7000000000140000400400008004015
:10116000000C004000040140004001400018004015
:101170002DE9F04104460D46002700BF94F83C00DD
:10118000012802D10220BDE8F081012084F83C0052
:1011900000BF022084F83D002068866826F07706AC
:1011A00026F47F46206886602868502833D00CDCFF
:1011B000202850D004DC00284BD0102851D149E021
:1011C000302849D040284CD139E060282DD07028F3
:1011D00007D0B0F5805F03D0B0F5005F41D10DE0DE
:1011E00041E0D5E902136A68206800F040FC2068FD
:1011F000866846F077062068866034E0D5E90213F9
:101200006A68206800F033FC2068806840F4804001
:101210002168886027E0EA686968206800F018FDA6
:101220005021206800F02EFC1DE0EA686968206803
:1012300000F021FD6021206800F024FC13E0EA6842
:101240006968206800F004FD4021206800F01AFC65
:1012500009E000BF00BF00BF2968206800F012FC51
:1012600001E0012700BF00BF012084F83D0000BF5E
:10127000002084F83C0000BF384684E710B586B0F3
:101280000446142101A8FFF766F832492068884215
:101290001FD100BF002000902F48006840F01000D0
:1012A0002D4908600846006800F01000009000BF5B
:1012B00000BF4FF4D440019002200290012003901F
:1012C000022004900120059001A92448FFF7C2F8EC
:1012D0003EE02349206888423AD100BF00200090B8
:1012E0001D48006840F480701B490860084600688B
:1012F00000F48070009000BF00BF00BF002000908D
:101300000846006840F0040008600846006800F0E5
:101310000400009000BF00BFC02001900220029096
:1013200001200390022004900320059001A90D489C
:10133000FFF790F8402001900220029001200390D6
:10134000022004900320059001A90748FFF782F8C6
:1013500006B010BD000001403038024000100240CD
:101360000004014000200240000802402DE9F04145
:1013700004460D461646002700BF94F83C0001289D
:1013800002D10220BDE8F081012084F83C0000BFBA
:1013900036B1042E1BD0082E31D00C2E5ED145E084
:1013A0002946206800F078FB2068806940F008003A
:1013B000216888612068806920F0040021688861C4
:1013C00020688069296908432168886148E02946C6
:1013D000206800F099FB2068806940F40060216873
:1013E00088612068806920F48060216888612068B5
:1013F0008069296940EA01202168886130E0294636
:10140000206800F0BFFB2068C06940F00800216838
:10141000C8612068C06920F004002168C8612068A4
:10142000C069296908432168C86119E02946206814
:1014300000F0E4FB2068C06940F400602168C861E6
:101440002068C06920F480602168C8612068C06994
:10145000296940EA01202168C86101E0012700BF35
:1014600000BF00BF002084F83C0000BF384689E779
:1014700010B504460CB9012010BD94F83D0028B900
:10148000002084F83C00204600F025F8022084F873
:101490003D00211D206800F069FA012084F8460013
:1014A00000BF84F83E0001213F2001554020015536
:1014B0004120015500BF00BF012084F842004320B5
:1014C0000155442001554520015500BF012084F8F5
:1014D0003D000020D0E7704770B504460D4615B9B1
:1014E00094F83E000BE0042D02D13F20005D06E0A1
:1014F000082D02D14020005D01E04120005D01285F
:1015000001D0012070BD1DB9022084F83E000EE01C
:10151000042D03D102213F20015508E0082D03D1FD
:1015200002214020015502E0022141200155012203
:101530002946206800F08AFA23492068884203D0AF
:1015400022492068884201D1012000E0002028B112
:101550002068406C40F40040216848641A492068C3
:1015600088421BD02068B0F1804F17D018492068FE
:10157000884213D01749206888420FD01649206846
:1015800088420BD011492068884207D0134920684F
:10159000884203D01249206888420CD120688068B4
:1015A00000F00706062E0CD02068006840F001000D
:1015B0002168086005E02068006840F001002168AB
:1015C000086000209EE70000000001400004014088
:1015D0000004004000080040000C004000400140B2
:1015E0000018004000BFFEE708B500BF00200090D3
:1015F0002448006840F0010022490860084600685D
:1016000000F00100009000BF00BF00BF002000906C
:101610000846006840F4807008600846006800F4DE
:101620008070009000BF00BF00BF002000900846FF
:10163000006840F0800008600846006800F0800004
:10164000009000BF00BF00BF002000900846006867
:1016500040F0040008600846006800F004000090B4
:1016600000BF00BF00BF002000900846006840F0A7
:10167000100008600846006800F01000009000BFED
:1016800000BF08BD3038024000B595B00020119071
:101690001290139014900F9010901C2108A8FEF740
:1016A0005AFE20216846FEF756FE38483849086041
:1016B000A720486000213648816044F61F61C16060
:1016C0000021016141618161FFF7A0FC08B1FEF7D3
:1016D000A9FE4FF48050119011A92D48FFF748FD45
:1016E00008B1FEF79FFE2A48FFF7C2FE08B1FEF7D9
:1016F00099FE00200F9010900FA92548FFF72CFCB1
:1017000008B1FEF78FFE602008904FF4FA60099050
:1017100000200A900B900C900D900E90002208A9CA
:101720001B48FFF723FE08B1FEF77CFE042208A940
:101730001748FFF71BFE08B1FEF774FE082208A940
:101740001348FFF713FE08B1FEF76CFE0C2208A940
:101750000F48FFF70BFE08B1FEF764FE0020009073
:1017600001900290039004904FF4005005900020E7
:10177000079069460648FFF7B5FB08B1FEF752FE31
:101780000348FFF77BFD15B000BD000000000140DD
:101790001000002000B595B0002011901290139019
:1017A00014900F9010901C2108A8FEF7D4FD202162
:1017B0006846FEF7D0FD344834490860A7204860E9
:1017C00000213248816044F61F61C160002101613F
:1017D00041618161FFF71AFC08B1FEF723FE4FF467
:1017E0008050119011A92948FFF7C2FC08B1FEF7FB
:1017F00019FE2648FFF73CFE08B1FEF713FE002055
:101800000F9010900FA92148FFF7A6FB08B1FEF733
:1018100009FE602008904FF4FA60099000200A90B9
:101820000B900C900D900E90002208A91748FFF71E
:101830009DFD08B1FEF7F6FD042208A91348FFF745
:1018400095FD08B1FEF7EEFD082208A90F48FFF745
:101850008DFD08B1FEF7E6FD00200090019002909A
:10186000039004904FF400500590002007906946C3
:101870000648FFF737FB08B1FEF7D4FD0348FFF732
:10188000FDFC15B000BD0000000401405800002020
:1018900000BFFEE700BFFEE77047704710B5FEF7D8
:1018A000D9FE10BD00B593B0302107A8FEF753FD57
:1018B000142102A8FEF74FFD00BF0020019024482C
:1018C000006840F08050224908600846006800F037
:1018D0008050019000BF00BF00BF002001901D4854
:1018E000006840F480401B4908600846006800F426
:1018F0008040019000BF00BF0120079000040890C5
:1019000002200D9041050E9106210F91A821109102
:10191000022111910421129107A8FFF77BF808B169
:10192000FEF780FD0F20029002200390002004901B
:101930004FF4A05005904FF480500690052102A866
:10194000FEF74EFF08B1FEF76DFD13B000BD0000BD
:1019500040380240007000400348006840F47000C6
:10196000014908607047000088ED00E010B502688A
:101970002B4B98420ED0B0F1804F0BD0294B9842A0
:1019800008D0294B984205D0284B984202D0284BCA
:10199000984203D122F070024B681A43204B9842C0
:1019A00020D0B0F1804F1DD01E4B98421AD01E4B54
:1019B000984217D01D4B984214D01D4B984211D01D
:1019C0001C4B98420ED01C4B98420BD01B4B98429C
:1019D00008D01B4B984205D01A4B984202D01A4BA4
:1019E000984203D122F44072CB681A4322F080035C
:1019F0004C6943EA04028B68C3620B688362084B3C
:101A0000984202D00A4B984201D10B6903630368E4
:101A100043F00403036001234361026010BD000032
:101A2000000001400004004000080040000C00409D
:101A300000040140004001400044014000480140D2
:101A400000180040001C00400020004030B501F0AC
:101A50001F05012404FA05F3046A9C430462046A26
:101A600001F01F0502FA05F52C43046230BD30B5C4
:101A70000C46816821F47F4142EA0325254329432E
:101A8000816030BD0A46816821F0700142F0070391
:101A9000194381607047000030B5026A056A25F07D
:101AA000010505624368846924F0700424F003048E
:101AB0000D682C4322F002028D682A43104DA84283
:101AC00000D103E00F4DA84206D100BF22F008026A
:101AD000CD682A4322F00402094DA84202D0094DE4
:101AE000A84207D123F4807323F400734D692B437C
:101AF0008D692B43436084614D684563026230BD4C
:101B0000000001400004014030B5026A056A25F07A
:101B1000100505624368846924F4E04424F44074A9
:101B20000D6844EA052422F020028D6842EA05127D
:101B3000124DA84200D103E0114DA84207D100BFC9
:101B400022F08002CD6842EA051222F040020B4DDD
:101B5000A84202D00A4DA84209D123F4806323F49D
:101B600000634D6943EA85038D6943EA8503436059
:101B700084614D688563026230BD00000000014051
:101B80000004014030B5026A056A25F480750562DB
:101B90004368C46924F0700424F003040D682C43E6
:101BA00022F400728D6842EA0522124DA84200D14B
:101BB00003E0114DA84207D100BF22F40062CD68B6
:101BC00042EA052222F480620A4DA84202D00A4D60
:101BD000A84209D123F4805323F400534D6943EA0A
:101BE00005138D6943EA05134360C4614D68C563FD
:101BF000026230BD000001400004014030B5036ABC
:101C0000056A25F4805505624468C26922F4E04201
:101C100022F440720D6842EA052223F400538D68D5
:101C200043EA0533084DA84202D0084DA84204D12A
:101C300024F480444D6944EA85144460C2614D68CF
:101C40000564036230BD0000000001400004014053
:101C500030B50B461446026A056A25F00105056297
:101C6000816921F0F00141EA041122F00A021A43CD
:101C70008161026230BD30B50B461446026A056AC6
:101C800025F010050562816921F4704141EA0431B3
:101C900022F0A00242EA03128161026230BD00BF5D
:101CA000FEE7000002480068C0F302207047000011
:101CB0000CED00E010B5002804DB0A07130E054AFE
:101CC000135406E00A07140E034A00F00F031B1F0B
:101CD000D45410BD00E400E018ED00E0FEF7C6FCAF
:101CE000FFF7E0FDFFF780FCFFF7CEFCFFF752FDAA
:101CF0002B48FFF7EFF900212948FFF7EDFB0421FE
:101D00002748FFF7E9FB08212548FFF7E5FB0021FD
:101D10002348FFF7E1FB2348FFF7DCF900212148C6
:101D2000FFF7DAFB04211F48FFF7D6FB08211D4807
:101D3000FFF7D2FB33E04FF4FA70194909684863A2
:101D400017490968886316490968C863144909680E
:101D5000086414490968486312490968886311498D
:101D60000968C8634000FEF761FB4FF4FA600C4954
:101D7000096848630A490968886309490968C863AA
:101D800007490968086407490968486305490968FB
:101D9000886304490968C8634010FEF747FBCAE737
:101DA00010000020580000204FF04070E1EE100AB3
:101DB0007047000000000000000001020304060755
:101DC000080900000000010203040000EC1D0008E7
:101DD0000000002010000000C4010008FC1D0008E5
:101DE00010000020F0060000E001000800000000E4
:0C1DF00010000000010000000024F400BE
:040000050800018965
:00000001FF
